:020000040800F2
:1000000000200020B1B000085DAD000867AD000819
:1000100000000000000000000000000000000000E0
:100020000000000000000000000000006DAD0008AE
:10003000000000000000000077AD000881AD00085E
:1000400001B1000801B1000801B1000801B10008C8
:1000500001B1000801B1000801B1000801B10008B8
:100060000000000001B1000895AD0008ADAD00082A
:1000700001B1000801B100080000000001B1000852
:100080000000000001B100080000000000000000B6
:1000900001B100080000000001B1000801B1000832
:1000A00001B10008D1AD000801B1000801B100089C
:1000B00001B1000801B100080000000000000000CC
:1000C00010B5064C2378002B07D1054B002B02D02E
:1000D000044800E000BF0123237010BD8000002011
:1000E0000000000040C00008044B10B5002B03D0F6
:1000F0000349044800E000BF10BDC04600000000F6
:100100008400002040C00008002243088B4274D3C2
:1001100003098B425FD3030A8B4244D3030B8B4208
:1001200028D3030C8B420DD3FF22090212BA030C11
:100130008B4202D31212090265D0030B8B4219D3F2
:1001400000E0090AC30B8B4201D3CB03C01A524112
:10015000830B8B4201D38B03C01A5241430B8B425A
:1001600001D34B03C01A5241030B8B4201D30B0343
:10017000C01A5241C30A8B4201D3CB02C01A52416A
:10018000830A8B4201D38B02C01A5241430A8B422D
:1001900001D34B02C01A5241030A8B4201D30B0216
:1001A000C01A5241CDD2C3098B4201D3CB01C01A30
:1001B000524183098B4201D38B01C01A524143093A
:1001C0008B4201D34B01C01A524103098B4201D328
:1001D0000B01C01A5241C3088B4201D3CB00C01A95
:1001E000524183088B4201D38B00C01A524143080D
:1001F0008B4201D34B00C01A5241411A00D2014632
:10020000524110467047FFE701B5002000F006F8A4
:1002100002BDC0460029F7D076E770477047C04658
:10022000002B11D1002A0FD1002900D1002802D0C3
:100230000021C943081C07B4024802A140180290DB
:1002400003BDC046D9FFFFFF03B4684601B502985D
:1002500000F006F8019B9E4602B00CBC7047C046F9
:10026000F0B557464E464546DE46E0B5040083B03D
:100270000D00924699468B422FD82CD049465046C5
:1002800000F0AEF829000600200000F0A9F8331AAB
:100290009846203B9B4600D574E053465A4693400F
:1002A0001F005346424693401E00AF4229D826D035
:1002B0005B46A41BBD41002B00DA79E0002200233D
:1002C0000092019301235A46934001930123424631
:1002D0009340009319E08242D0D90022002300927B
:1002E00001930C9B002B01D01C605D60009801996C
:1002F00003B03CBC90469946A246AB46F0BDA34233
:10030000D6D900220023009201934346002BE8D067
:10031000FB0772081A4346467B080EE0AB4201D148
:10032000A2420CD8A41A9D41012024196D4100213C
:10033000013E24184D41002E06D0AB42EED9013EBD
:1003400024196D41002EF8D15B46009801990019DF
:100350006941002B22DB2B005A46D3402A00444639
:10036000E2401C005B461500002B2CDB26009E4063
:10037000330026004746BE403200801A9941009063
:100380000191AEE7424620239B1A5246DA4041468D
:1003900013004A468A4017001F4382E74246202343
:1003A0009B1A2A0046469A402300F3401343D5E7A0
:1003B0004246202300219B1A002200910192012233
:1003C000DA40019282E74246202326009B1ADE4053
:1003D0002F00B446974066463B003343C9E7C0460A
:1003E00010B5002903D100F007F8203002E0081C06
:1003F00000F002F810BDC0461C2101231B049842E6
:1004000001D3000C10391B0A984201D3000A0839A5
:100410001B09984201D30009043902A2105C40185C
:100420007047C04604030202010101010000000000
:100430000000000090B587B000AF786000237B61BA
:1004400001F0CEF80300FB601323FB1800221A70A2
:1004500015E01323FC18FF2000F0CCF803002370F4
:1004600001F0BEF80200FB68D21A7B689A4203D9F9
:1004700001235B427B6107E07B6901337B611323CE
:10048000FB181B78FF2BE4D17B691800BD4607B031
:1004900090BD80B584B000AF0200FB1D1A70BB1D7B
:1004A0000A1C1A700E23FB1889221A70FB1DF91DF5
:1004B000BA1D097812784A401A700F23FB180022DF
:1004C0001A7018E0FB1D1B785BB2002B07DAFB1DCE
:1004D000F91D0E22BA18097812784A401A70FA1DCE
:1004E000FB1D1B78DB1813700F23FB181A780F23E2
:1004F000FB1801321A700F23FB181B78072BE1D968
:10050000FB1D1B781800BD4604B080BD80B582B0CD
:1005100000AF0200BB1D1A807B1D0A1C1A70BB1D98
:100520001B881B0A9BB2DBB21AB2BB1D1B881B02C5
:100530001BB213431AB2BB1D1A807B1D1B7899B2E4
:10054000BB1DBA1D12884A401A80BB1D1B88DBB236
:100550001B09DBB299B2BB1DBA1D12884A401A8032
:10056000BB1D1B881B031AB2BB1D00215B5E5340E1
:100570001AB2BB1D1A80BB1D1B885B011AB2FF2378
:100580005B0113401AB2BB1D00215B5E53401AB2DF
:10059000BB1D1A80BB1D1B881800BD4602B080BD64
:1005A00090B585B000AF786039600A23FB1800224F
:1005B0001A800023FB6011E07A68FB68D3181A7870
:1005C0000A23FC180A23FB181B8811001800FFF7E8
:1005D0009DFF03002380FB680133FB60FA683B68E2
:1005E0009A42E9D30A23FB181B881800BD4605B0C0
:1005F00090BD000080B586B002AF0200FB1D1A70EE
:10060000A023DB0500221021180001F0F5FF0F23C5
:10061000FA18F91D09480A230093012304F00CFA83
:10062000A023DB0501221021180001F0E5FF0F23B4
:10063000FB181B781800BD4604B080BDD011002007
:1006400090B585B000AF02003960FB1D1A700E2313
:10065000FB1800221A70FF20FFF7CCFFFB1D1B7850
:1006600040221343DBB21800FFF7C4FFFB1D1B78C9
:1006700040221343DAB20E23FC180E23FB181B781A
:1006800011001800FFF705FF030023703B681B0EE5
:10069000DBB21800FFF7AEFF3B681B0EDAB20E2389
:1006A000FC180E23FB181B7811001800FFF7F1FE51
:1006B000030023703B681B0CDBB21800FFF79AFFA6
:1006C0003B681B0CDAB20E23FC180E23FB181B78B8
:1006D00011001800FFF7DDFE030023703B681B0AC2
:1006E000DBB21800FFF786FF3B681B0ADAB20E2365
:1006F000FC180E23FB181B7811001800FFF7C9FE29
:10070000030023703B68DBB21800FFF773FF3B6800
:10071000DAB20E23FC180E23FB181B781100180008
:10072000FFF7B7FE030023700E23FB181B7801228E
:100730001343DBB21800FFF75DFF0F23FB18002205
:100740001A7008E00F23FB181B780F22BA18591CE7
:100750001170C82B0CD80D23FC18FF20FFF74AFF9F
:10076000030023700D23FB181B78FF2BEAD000E059
:10077000C0460D23FB181B781800BD4605B090BD80
:1007800090B585B000AF02003960FB1D1A700C23D4
:10079000FB1800221A800B23FB1800221A70FF207E
:1007A000FFF728FFFB1D1B7840221343DBB2180024
:1007B000FFF720FFFB1D1B7840221343DAB20B2307
:1007C000FC180B23FB181B7811001800FFF761FEC3
:1007D000030023703B681B0EDBB21800FFF70AFF13
:1007E0003B681B0EDAB20B23FC180B23FB181B789B
:1007F00011001800FFF74DFE030023703B681B0C2F
:10080000DBB21800FFF7F6FE3B681B0CDAB20B23D5
:10081000FC180B23FB181B7811001800FFF739FE9A
:10082000030023703B681B0ADBB21800FFF7E2FEEF
:100830003B681B0ADAB20B23FC180B23FB181B784E
:1008400011001800FFF725FE030023703B68DBB2A0
:100850001800FFF7CFFE3B68DAB20B23FC180B231E
:10086000FB181B7811001800FFF713FE030023701C
:100870000B23FB181B7801221343DBB21800FFF790
:10088000B9FE0F23FB1800221A7008E00F23FB1893
:100890001B780F22BA18591C1170C82B0CD80A23C8
:1008A000FC18FF20FFF7A6FE030023700A23FB18A5
:1008B0001B78FF2BEAD00AE0C04608E00F23FB18A4
:1008C0001B780F22BA18591C1170C82B0CD8092399
:1008D000FC18FF20FFF78EFE030023700923FB188E
:1008E0001B78FF2BEAD000E0C0460A23FB181B78D8
:1008F0009AB20C23FB1812021A800923FB181B78EA
:1009000099B20C23FB180C22BA1812880A431A80D9
:100910000C23FB181B881800BD4605B090BD0000D5
:1009200090B585B000AF0023FB60A023DB0500225B
:100930001021180001F060FE0023FB6005E0FF209D
:10094000FFF758FEFB680133FB60FB68072BF6D905
:100950000023FB600B23FB1800221A700AE00B2314
:10096000FC1800210020FFF76BFE03002370FB68DA
:100970000133FB60FB681F2B04D80B23FB181B788B
:10098000012BECD1FB681F2B06D90B23FB181B781E
:10099000012B01D0FF231EE10B23FC18D5235B00A4
:1009A00019000820FFF74CFE030023700B23FB18EF
:1009B0001B78012B00D093E0FF20FFF71BFE030004
:1009C0001B067B60FF20FFF715FE03001B041A00C7
:1009D0007B6813437B60FF20FFF70CFE03001B02C4
:1009E0001A007B6813437B60FF20FFF703FE0300C0
:1009F0001A007B6813437B607B68DB05DA0DD52327
:100A00005B009A4201D0FB23E5E00023FB600B234F
:100A1000FB18FF221A700DE000213720FFF710FEAF
:100A20000B23FC188023DB0519002920FFF708FEA3
:100A300003002370FB680133FB60FB68684A934244
:100A400004D80B23FB181B78002BE5D1FB68644A04
:100A5000934204D80B23FB181B78002B01D0FF23F3
:100A6000B9E0604B02221A700B23FC1800213A20D7
:100A7000FFF7E6FD030023700B23FB181B78002B08
:100A800025D1FF20FFF7B6FD03001B067B60FF208A
:100A9000FFF7B0FD03001B041A007B6813437B6063
:100AA000FF20FFF7A7FD03001B021A007B6813431A
:100AB0007B60FF20FFF79EFD03001A007B68134355
:100AC0007B607A688023DB05134051D004E0454BFE
:100AD00000221A70FC237EE0424B04221A7047E089
:100AE0000023FB600B23FB18FF221A7014E0002187
:100AF0003720FFF7A5FD0B23FC1800212920FFF765
:100B00009FFD030023700B23FB181B78002B03D1E0
:100B1000344B01221A7005E0FB680133FB60FB686F
:100B2000FD2BE4D90B23FB181B78052B20D1FB6888
:100B3000FD2B1DD90023FB600B23FB18FF221A702D
:100B400010E00B23FC1800210120FFF779FD0300C2
:100B500023700B23FB181B78002B03D1214B03229E
:100B60001A7005E0FB680133FB60FB68FD2BE8D9D8
:100B70001C4B1B78002B01D1FE232CE00B23FC180F
:100B800001213B20FFF75CFD03002370154B1B7810
:100B9000012B07D0134B1B78022B03D0114B1B7872
:100BA000032B10D10B23FC1880239B00190010206D
:100BB000FFF746FD030023700B23FB181B78002B67
:100BC00001D0FD2307E0A023DB050122102118003E
:100BD00001F012FD00231800BD4605B090BDC046CF
:100BE0000F2700009C00002090B585B000AFA02327
:100BF000DB0500221021180001F0FEFC0A23FC187E
:100C000000210920FFF71CFD030023700A23FB18B5
:100C10001B78002B1AD00B23FB1800221A700CE053
:100C20000B23FB181B78664A0021D1540B23FB18B9
:100C30001A780B23FB1801321A700B23FB181B7850
:100C40000F2BEDD90A23FB181B78B5E00023FB60BE
:100C50000A23FB1800221A7006E00A23FC18FF2062
:100C6000FFF7C8FC03002370FB680133FB60FB68DF
:100C7000544A934204D80A23FB181B78FE2BECD16C
:100C8000FA68FF235B009A4201D9FF2394E00B230B
:100C9000FB1800221A7010E00B23FB181C78FF20B1
:100CA000FFF7A8FC03001A00454B1A550B23FB184D
:100CB0001A780B23FB1801321A700B23FB181B78D0
:100CC0000F2BE9D9FF20FFF795FC03009BB21B0215
:100CD0009AB23D4B1A80FF20FFF78CFC03009AB2BA
:100CE000394B1B8813439AB2374B1A80344B10216F
:100CF0001800FFF755FC03001A00344B1A80A0239C
:100D0000DB0501221021180001F076FC2C4BDA786B
:100D10002F4B1A702F4B1B78032B49D0284B1B7875
:100D20009B09DBB2012B19D1254BDB791B041A007F
:100D3000FC239B0313407B60214B1B7A1B021A0090
:100D40007B6813437B601E4BDB791A007B6813437F
:100D50007B607B685A02204B1A602CE0184B9B7911
:100D60009B021A00C0231B0113407B60144BDB79EC
:100D70009B007A6813437B60114B1B7A9B09DBB2A3
:100D80001A007B6813437B600D4B5B7A5B001A0093
:100D9000062313403B600A4B9B7ADB09DBB21A0047
:100DA0003B6813433B607B689A020B4B1A6002E07E
:100DB000094B00221A6000231800BD4605B090BD03
:100DC000F0000020FF010000EC00002000010020E6
:100DD0009D0000209C0000200401002090B583B0FD
:100DE00000AFA023DB0500221021180001F004FC55
:100DF000BC1C00210A20FFF723FC03002370BB1C4E
:100E00001B78002B14D0FB1C00221A7009E0FB1C7D
:100E10001B78364A0021D154FB1C1A78FB1C013286
:100E20001A70FB1C1B780F2BF1D9BB1C1B7858E0E8
:100E300000237B60BB1C00221A7005E0BC1CFF2055
:100E4000FFF7D8FB030023707B6801337B607B686E
:100E5000274A934203D8BB1C1B78FE2BEED17A683D
:100E6000FF235B009A4201D9FF233AE0FB1C0022DA
:100E70001A700DE0FB1C1C78FF20FFF7BBFB030082
:100E80001A001A4B1A55FB1C1A78FB1C01321A70F7
:100E9000FB1C1B780F2BEDD9FF20FFF7ABFB0300EA
:100EA0009BB21B029AB2134B1A80FF20FFF7A2FBE2
:100EB00003009AB20F4B1B8813439AB20D4B1A8052
:100EC0000A4B10211800FFF76BFB03001A000A4BB6
:100ED0001A80A023DB0501221021180001F08CFBF1
:100EE00000231800BD4603B090BDC0460801002095
:100EF000FF010000EC0000200001002090B587B049
:100F000000AF78603960FA239B001800FFF792FA6F
:100F10000300FB60A023DB0500221021180001F074
:100F20006BFB4D4B1B78042B02D07B685B027B6014
:100F30001123FC187B6819001120FFF781FB0300C7
:100F400023701123FB181B78002B1CD01223FB18D5
:100F500000221A800DE01223FB181B883A68D31870
:100F600000221A701223FB181A881223FB18013270
:100F70001A801223FB181B88384A9342EBD911239D
:100F8000FB181B7863E000237B611123FB18002210
:100F90001A7006E01123FC18FF20FFF72BFB03005B
:100FA00023707B6901337B617B692C4A934204D8AF
:100FB0001123FB181B78FE2BECD17A69FF235B0011
:100FC0009A4201D9FF2342E01223FB1800221A8023
:100FD00010E01223FB181B883A68D418FF20FFF793
:100FE00009FB030023701223FB181A881223FB1835
:100FF00001321A801223FB181B88184A9342E8D941
:10100000FF20FFF7F7FA03009BB21B029AB2144BC2
:101010001A80FF20FFF7EEFA03009AB2104B1B88EC
:1010200013439AB20E4B1A8080239A003B6811003A
:101030001800FFF7B5FA03001A000A4B1A80A02324
:10104000DB0501221021180001F0D6FA0023180058
:10105000BD4607B090BDC0469C000020FF010000C7
:10106000EC0000200001002090B587B000AF786050
:101070003960FA239B001800FFF7DCF90300FB60DE
:10108000A023DB0500221021180001F0B5FA594B0E
:101090001B78042B02D07B685B027B601123FC1859
:1010A0007B6819001820FFF7CBFA03002370112387
:1010B000FB181B78002B0AD0A023DB05012210218E
:1010C000180001F099FA1123FB181B788EE0002319
:1010D0007B611123FB1800221A7006E01123FC1813
:1010E000FF20FFF787FA030023707B6901337B61E0
:1010F0007B69414A934204D81123FB181B78FF2BCC
:10110000ECD17A69FF235B009A4208D9A023DB0562
:1011100001221021180001F06FFAFF2366E0FE2083
:10112000FFF768FA1223FB1800221A800FE012233F
:10113000FB181B883A68D3181B781800FFF75AFA77
:101140001223FB181A881223FB1801321A8012236B
:10115000FB181B88284A9342E9D980239A003B68F0
:1011600011001800FFF71CFA03001A00234B1A8025
:10117000224B1B881B0A9BB2DBB21800FFF73AFA1E
:101180001E4B1B88DBB21800FFF734FA1123FC1842
:10119000FF20FFF72FFA030023701123FB181B78A1
:1011A0005B10DAB20B23FB1807210A401A700B23DD
:1011B000FB181B78052B04D0062B04D0022B04D07F
:1011C00004E0C04602E0C04600E0C0460823FC1828
:1011D00000210D20FFF7D4FA03002380A023DB05B4
:1011E00001221021180001F007FA00231800BD4663
:1011F00007B090BD9C000020FF010000000100200E
:1012000090B589B000AFF860B9607A607B687B61A7
:10121000A023DB0500221021180001F0EDF9674B37
:101220001B78042B02D0FB685B02FB600021372097
:10123000FFF706FA7B685B035B0B19001720FFF7CB
:10124000FFF91923FC18FB6819001920FFF7F8F9BA
:10125000030023701923FB181B78002B00D196E0A4
:10126000A023DB0501221021180001F0C5F9192384
:10127000FB181B789EE00023FB611923FB1800225A
:101280001A7006E01923FC18FF20FFF7B3F90300DA
:101290002370FB690133FB61FB69494A934204D81F
:1012A0001923FB181B78FF2BECD1FA69FF235B0095
:1012B0009A4208D9A023DB0501221021180001F071
:1012C0009BF9FF2376E01923FC18FC20FFF792F925
:1012D000030023701A23FB1800221A800FE01A2340
:1012E000FB181B88BA68D3181B781800FFF782F91F
:1012F0001A23FB181A881A23FB1801321A801A23A2
:10130000FB181B882E4A9342E9D980239A00BB68B8
:1013100011001800FFF744F903001A00294B1A8046
:10132000284B1B881B0A9BB2DBB21800FFF762F93F
:10133000244B1B88DBB21800FFF75CF91923FC185B
:10134000FF20FFF757F9030023701923FB181B78C0
:101350005B10DAB21323FB1807210A401A7013231B
:10136000FB181B78052B04D0062B04D0022B04D0CD
:1013700004E0C04602E0C04600E0C046BB688022F0
:10138000920094466344BB607B69013B7B617B694F
:10139000002B00D06FE71923FC18FD20FFF72AF976
:1013A00003002370A023DB0501221021180001F0A7
:1013B00023F900231800BD4609B090BD9C00002011
:1013C000FF0100000001002090B589B000AFF86077
:1013D000B9607A607B687B61A023DB050022102165
:1013E000180001F009F95B4B1B78042B02D0FB6855
:1013F0005B02FB601923FC18FB6819001220FFF741
:101400001FF9030023701923FB181B78002B00D150
:1014100081E01A23FB1800221A800DE01A23FB1822
:101420001B88BA68D31800221A701A23FB181A886E
:101430001A23FB1801321A801A23FB181B88464A0C
:101440009342EBD91923FB181B787EE00023FB6144
:101450001923FB1800221A7006E01923FC18FF203C
:10146000FFF7C8F803002370FB690133FB61FB69D8
:10147000394A934204D81923FB181B78FE2BECD170
:10148000FA69FF235B009A4201D9FF235DE01A232A
:10149000FB1800221A8010E01A23FB181B88BA6878
:1014A000D418FF20FFF7A6F8030023701A23FB18B7
:1014B0001A881A23FB1801321A801A23FB181B887A
:1014C000254A9342E8D9FF20FFF794F803009BB226
:1014D0001B029AB2214B1A80FF20FFF78BF8030002
:1014E0009AB21E4B1B8813439AB21C4B1A8080235E
:1014F0009A00BB6811001800FFF752F803001A00A9
:10150000174B1A80BB688022920094466344BB60EC
:101510007B69013B7B617B69002B97D11923FC1808
:1015200000210C20FFF78CF8030023701323FC1814
:10153000FF20FFF75FF803002370A023DB050122E3
:101540001021180001F058F800231800BD4609B01A
:1015500090BDC0469C000020FF010000EC00002070
:101560000001002080B500AF074B074A12684021F8
:101570000A431A60002000F009F809F051FA00232C
:101580001800BD4680BDC0460020024080B582B034
:1015900000AF78600B4B1A68FA2399001000FEF731
:1015A000B3FD0300180000F009F9796801235B42DC
:1015B0000022180000F0C6F800231800BD4602B053
:1015C00080BDC0460000002080B500AF034B1B6803
:1015D0005A1C024B1A60C046BD4680BD180100204F
:1015E00080B500AF024B1B681800BD4680BDC046E9
:1015F0001801002080B582B000AF0200FB1D1A70F8
:10160000064BFA1D127811001F220A400121914059
:101610000A001A60C046BD4602B080BD00E100E08D
:10162000B0B582B000AF02003960FB1D1A70FB1D1F
:101630001B787F2B32D92F4CFB1D1B781A000F23F0
:101640001340083B99082B4AFB1D1B7818000F23F9
:101650000340083B9B0806339B00D31804331B68E8
:10166000FA1D1278100003220240D200FF209040A1
:101670000200D2431A403B689B01FF201840FB1D2B
:101680001B781D0003232B40DB00984003001A4306
:101690008B1D9B00E31804331A6027E0164CFB1DDA
:1016A0001B785BB29B081449FA1D127852B292085B
:1016B000C03292005258F91D0978080003210140F8
:1016C000C900FF2088400100C94311403A689201D7
:1016D000FF201040FA1D1278150003222A40D20084
:1016E000904002000A43C0339B001A51C046BD46D9
:1016F00002B0B0BD00ED00E000E100E080B582B0D6
:1017000000AF78607B68013B0C4A934201D901230A
:1017100010E00B4B7A68013A5A6001235B420321C7
:101720001800FFF77DFF064B00229A60044B07224A
:101730001A6000231800BD4602B080BDFFFFFF0005
:1017400010E000E080B584B000AFB9607A600F238C
:10175000FB18021C1A70BB68032B04D9084B982194
:10176000180008F099FFBA680F23FB181B785BB2CA
:1017700011001800FFF754FFC046BD4604B080BDFD
:1017800058C0000880B582B000AF0200FB1D1A707F
:10179000FB1D1B787F2B04D9074BA821180008F0EC
:1017A0007BFFFB1D1B785BB21800FFF723FFC046D1
:1017B000BD4602B080BDC04658C0000880B582B0AA
:1017C00000AF78607B681800FFF798FF03001800EF
:1017D000BD4602B080BD000080B582B000AF786029
:1017E0007B68042B09D07B68002B06D095235A0018
:1017F0000C4B1100180008F04FFF7B68042B06D13A
:10180000094B094A126804210A431A6005E0064B95
:10181000054A126804218A431A60C046BD4602B0D8
:1018200080BDC04658C0000810E000E080B500AFA1
:1018300000F003F8C046BD4680BD80B500AFC0468D
:10184000BD4680BD80B584B000AF78600023FB60EA
:101850007B68002B01D10123B4E17B681B68BF4A80
:10186000934222D07B681B68BD4A93421DD07B689F
:101870001B68BC4A934218D07B681B68BA4A9342E3
:1018800013D07B681B68B94A93420ED07B681B68F3
:10189000B74A934209D07B681B68B64A934204D08A
:1018A000B54B9621180008F0F7FE7B685B68002BAB
:1018B0002CD07B685B68012B28D07B685B68022B8F
:1018C00024D07B685B68032B20D07B685B68042B8B
:1018D0001CD07B685B68052B18D07B685B68062B87
:1018E00014D07B685B68072B10D07B685B68082B83
:1018F0000CD07B685B68092B08D07B685B680B2B7E
:1019000004D09D4B9721180008F0C6FE7B689B68A9
:10191000002B0ED07B689B68102B0AD07B689A68DE
:101920008023DB019A4204D0934B9821180008F0E1
:10193000B3FE7B68DB68402B08D07B68DB68002B3C
:1019400004D08D4B9921180008F0A6FE7B681B6916
:10195000802B08D07B681B69002B04D0864B9A2112
:10196000180008F099FE7B685B69002B10D07B683B
:101970005A6980235B009A420AD07B685A698023A7
:101980009B009A4204D07C4B9B21180008F084FEF7
:101990007B689B69002B10D07B689A698023DB00F1
:1019A0009A420AD07B689A6980231B019A4204D02C
:1019B000714B9C21180008F06FFE7B68DB69002BDF
:1019C00008D07B68DB69202B04D06B4B9D2118006D
:1019D00008F062FE7B681B6A002B16D07B681A6ACF
:1019E00080235B019A4210D07B681A6A80239B0196
:1019F0009A420AD07B681A6AC0239B019A4204D09B
:101A00005D4B9E21180008F047FE7B6825229B5CF9
:101A1000DBB2002B03D17B682422002199547B6820
:101A20002522022199547B681B681B68FB60FB68B8
:101A3000524A1340FB607B689A687B68DB681A43F4
:101A40007B681B691A437B685B691A437B689B69E7
:101A50001A437B68DB691A437B681B6A1343FA6885
:101A60001343FB607B681B68FA681A607B681B681D
:101A70003A4A93420DD1424B414A12680F218A43A0
:101A80001A603F4A3E4B19687B685B680B431360E2
:101A900093E07B681B68324A93420ED1384B384A38
:101AA0001268F0218A431A60354A354B19687B6801
:101AB0005B681B010B4313607FE07B681B68294A4E
:101AC00093420ED12E4B2E4A12682E490A401A60BC
:101AD0002B4A2B4B19687B685B681B020B43136016
:101AE0006BE07B681B68204A93420ED1244B244A4A
:101AF000126825490A401A60214A214B19687B68FF
:101B00005B681B030B43136057E07B681B68174A35
:101B100093420ED11A4B1A4A12681C490A401A60A5
:101B2000174A174B19687B685B681B040B431360EB
:101B300043E07B681B680E4A93422BD1104B104A3E
:101B4000126813490A401A600D4A0D4B19687B68E8
:101B50005B681B050B4313602FE0C0460800024082
:101B60001C00024030000240440002405800024085
:101B70006C0002408000024094C000080FC0FFFFCC
:101B8000A8000240FFF0FFFFFF0FFFFFFFFFF0FF85
:101B9000FFFF0FFF7B681B680C4A93420DD10C4B73
:101BA0000B4A12680B490A401A60094A084B196827
:101BB0007B685B681B060B4313607B682522012151
:101BC000995400231800BD4604B080BD8000024037
:101BD000A8000240FFFFFFF080B584B000AFF860BE
:101BE000B9607A603B60FB6824229B5C012B01D1C9
:101BF000022345E0FB68242201219954FB68252239
:101C0000022199543B68002B03D03B681E4A934243
:101C100007D9A023FF331A001C4B1100180008F04D
:101C20003BFDFB681B68FA681268126801218A4351
:101C30001A603B687A68B968F86800F013FAFB68C4
:101C40001B68FA681268126802210A431A60FB686E
:101C50001B68FA681268126804210A431A60FB685C
:101C60001B68FA681268126808210A431A60FB6848
:101C70001B68FA681268126801210A431A6000237F
:101C80001800BD4604B080BDFFFF000094C00008EE
:101C900080B582B000AF7860B04B1A687B681B6873
:101CA0001900AF4B99422ED07B681B681900AD4BD1
:101CB000994226D07B681B681900AB4B99421DD016
:101CC0007B681B681900A94B994214D07B681B687C
:101CD0001900A74B99420BD07B681B681900A54BD4
:101CE000994202D180231B040EE080231B050BE0E8
:101CF00080231B0308E080231B0205E080231B01D7
:101D000002E0802300E0082313405CD07B681B685E
:101D10001B680822134056D07B681B687A681268DB
:101D2000126808218A431A608C4A7B681B68190074
:101D30008B4B99422ED07B681B681900894B9942C6
:101D400026D07B681B681900874B99421DD07B68A1
:101D50001B681900854B994214D07B681B681900D9
:101D6000834B99420BD07B681B681900814B9942C9
:101D700002D180231B040EE080231B050BE080238F
:101D80001B0308E080231B0205E080231B0102E007
:101D9000802300E0082353607B68DB6B01221A4339
:101DA0007B68DA637B682522042199547B682422AE
:101DB000002199547B685B6B002B04D07B685B6BC4
:101DC0007A6810009847654B1A687B681B68190091
:101DD000634B99422ED07B681B681900614B994276
:101DE00026D07B681B6819005F4B99421DD07B6829
:101DF0001B6819005D4B994214D07B681B68190061
:101E00005B4B99420BD07B681B681900594B994278
:101E100002D18023DB030EE08023DB040BE0802370
:101E2000DB0208E08023DB0105E08023DB0002E029
:101E3000402300E00423134058D07B681B681B68D4
:101E40000422134052D07B681B681B682022134079
:101E500007D17B681B687A681268126804218A437C
:101E60001A603E4A7B681B6819003D4B99422ED090
:101E70007B681B6819003B4B994226D07B681B6826
:101E80001900394B99421DD07B681B681900374BEC
:101E9000994214D07B681B681900354B99420BD0CE
:101EA0007B681B681900334B994202D18023DB0306
:101EB0000EE08023DB040BE08023DB0208E08023BC
:101EC000DB0105E08023DB0002E0402300E0042387
:101ED00053607B682522052199547B681B6B002B7E
:101EE00004D07B681B6B7A68100098471B4B1A68FC
:101EF0007B681B6819001A4B99423DD07B681B68B0
:101F00001900184B994226D07B681B681900164BA4
:101F100099421DD07B681B681900144B994214D05C
:101F20007B681B681900124B99420BD07B681B68B9
:101F30001900104B994202D180239B031DE080239E
:101F40009B041AE080239B0217E080239B0114E08E
:101F500080239B0011E020230FE0C04600000240D8
:101F6000080002401C0002403000024044000240D1
:101F7000580002406C0002400223134060D07B688E
:101F80001B681B68022213405AD07B681B681B68C1
:101F90002022134007D17B681B687A681268126898
:101FA00002218A431A60284A7B681B681900274B64
:101FB00099422ED07B681B681900254B994226D088
:101FC0007B681B681900234B99421DD07B681B68F6
:101FD0001900214B994214D07B681B6819001F4BD4
:101FE00099420BD07B681B6819001D4B994202D1A6
:101FF00080239B030EE080239B040BE080239B0245
:1020000008E080239B0105E080239B0002E0202361
:1020100000E0022353607B68DA6B7B68DA637B68DD
:102020002522012199547B682422002199547B6840
:10203000DB6A002B04D07B68DB6A7A681000984763
:10204000C046BD4602B080BD00000240080002400C
:102050001C00024030000240440002405800024090
:102060006C00024080B584B000AFF860B9607A605F
:102070003B60FB681B683A685A60FB689B68102BE2
:1020800008D1FB681B687A689A60FB681B68BA68AD
:10209000DA6007E0FB681B68BA689A60FB681B6837
:1020A0007A68DA60C046BD4604B080BD80B586B0AF
:1020B00000AF7860396000237B610023FB60002360
:1020C0003B613B685B68002B36D03B685B68012B4B
:1020D00032D03B685B68112B2ED03B685B68022BCB
:1020E0002AD03B685B68122B26D03B685B68484A65
:1020F000934221D03B685B68464A93421CD03B68C0
:102100005B68454A934217D03B685B68434A9342F9
:1021100012D03B685B68424A93420DD03B685B68D3
:10212000404A934208D03B685B68032B04D03E4B87
:10213000BE21180008F0B0FA3B689B68002B0CD059
:102140003B689B68012B08D03B689B68022B04D03E
:10215000354BBF21180008F09FFA7A68A023DB05F1
:102160009A420CD13B681B681B041B0C07D03B68D0
:102170001B682E4A13432D4A934200D120E27B680C
:102180002B4A93420CD13B681B681B041B0C07D0E5
:102190003B681B68254A1343244A934200D10FE24F
:1021A0007B68244A93420CD13B681B681B041B0CC0
:1021B00007D03B681B681D4A13431C4A934200D159
:1021C000FEE17B681C4A93420BD13B681B680422EA
:1021D000134006D03B681B6804221343042B00D134
:1021E000EEE17B68154A93420BD13B681B680322E2
:1021F000134006D03B681B6803221343032B00D116
:10220000DEE1094BC021180008F046FAD8E1C046CB
:102210000000111000002110000031100000121009
:102220000000221000003210CCC00008FFFF0000A8
:102230000004005000080050000C0050001C00502A
:102240003B681B6801217A6991400A001340FB60DA
:10225000FB68002B00D1B0E13B685B68022B04D027
:102260003B685B68122B00D07DE07A68A023DB0519
:102270009A421BD13B681B69002B50D03B681B69FD
:10228000022B4CD03B681B69032B48D03B681B6971
:10229000042B44D03B681B69052B40D03B681B696D
:1022A000062B3CD03B681B69072B38D07B68CA4A99
:1022B00093421BD13B681B69002B30D03B681B69E4
:1022C000012B2CD03B681B69022B28D03B681B6973
:1022D000032B24D03B681B69042B20D03B681B696F
:1022E000052B1CD03B681B69062B18D07B68BB4AAA
:1022F000934207D13B681B69002B10D03B681B69D8
:10230000022B0CD07B68B64A934203D13B681B6911
:10231000002B04D0B34BCF21180008F0BDF97B6926
:10232000DA087B6808329200D3583B617B69072248
:1023300013409B000F229A401300DA433B6913407D
:102340003B613B681A697B6907210B409B009A40FF
:1023500013003A6913433B617B69DA087B680832F2
:1023600092003969D1503B685B68012B0BD03B6808
:102370005B68022B07D03B685B68112B03D03B687E
:102380005B68122B45D13B68DB68002B10D03B68A3
:10239000DB68012B0CD03B68DB68022B08D03B6864
:1023A000DB68032B04D08F4BDC21180008F074F994
:1023B0007B689B683B617B695B0003229A4013004A
:1023C000DA433B6913403B613B68DA687B695B0039
:1023D0009A4013003A6913433B617B683A699A60FB
:1023E0007B685B683B6101227B699A401300DA439A
:1023F0003B6913403B613B685B681B0901221A4043
:102400007B699A4013003A6913433B617B683A69E0
:102410005A607B681B683B617B695B0003229A40C2
:102420001300DA433B6913403B613B685B6803225E
:102430001A407B695B009A4013003A6913433B6181
:102440007B683A691A607B68DB683B617B695B008B
:1024500003229A401300DA433B6913403B613B6817
:102460009A687B695B009A4013003A6913433B61A9
:102470007B683A69DA603B685A6880235B051340E1
:1024800000D19AE0584B584A526B01210A435A63D3
:10249000564A7B699B0802339B009B583B617B69D2
:1024A000032213409B000F229A401300DA433B693A
:1024B00013403B617A68A023DB059A4219D07B6800
:1024C000454A934213D07B68444A93420DD07B68BF
:1024D000434A934207D07B68454A934201D1052382
:1024E00008E0062306E0032304E0022302E00123C0
:1024F00000E000237A6903210A40920093403A6980
:1025000013433B6139497B699B0802339B003A695D
:102510005A50384B1B683B61FB68DA433B691340F8
:102520003B613B685A6880235B02134003D03A69E1
:10253000FB6813433B612F4B3A691A602D4B5B6874
:102540003B61FB68DA433B6913403B613B685A6877
:1025500080239B02134003D03A69FB6813433B611D
:10256000244B3A695A60234B9B683B61FB68DA4312
:102570003B6913403B613B685A6880235B0313400F
:1025800003D03A69FB6813433B611A4B3A699A607E
:10259000184BDB683B61FB68DA433B6913403B61E6
:1025A0003B685A6880239B03134003D03A69FB6859
:1025B00013433B610F4B3A69DA607B6901337B61FE
:1025C0003B681A687B69DA40131E00D038E6C046C3
:1025D000BD4606B080BDC046000400500008005053
:1025E000000C0050CCC00008001002400000014068
:1025F000001C00500004014080B582B000AF78603C
:1026000008001100BB1C021C1A807B1C0A1C1A70DB
:102610007A68A023DB059A4203D1BB1C1B88002BE0
:1026200036D17B682B4A934203D1BB1C1B88002BFD
:102630002ED17B68284A934203D1BB1C1B88002BF8
:1026400026D17B68254A93420BD1BB1C1B880422F0
:10265000134006D0BB1C1B88042213439BB2042BDF
:1026600016D07B681E4A93420BD1BB1C1B880322E9
:10267000134006D0BB1C1B88032213439BB2032BC1
:1026800006D0D5235A00174B1100180008F004F8A3
:102690007B1C1B78002B0BD07B1C1B78012B07D0DD
:1026A000AC23FF331A000F4B1100180007F0F4FFA2
:1026B0007B1C1B78002B04D0BB1C1A887B689A619A
:1026C00003E0BB1C1A887B689A62C046BD4602B014
:1026D00080BDC0460004005000080050000C0050AF
:1026E000001C0050CCC0000880B586B000AF7860F8
:1026F00000233B617B68002B07D15023FF331A0076
:10270000BE4B1100180007F0C7FF7B681B68002B49
:102710001FD07B681B68012213401AD17B681B689D
:102720000222134015D17B681B680822134010D188
:102730007B681B68042213400BD17B681B68102246
:10274000134006D1A8235A00AC4B1100180007F023
:10275000A3FF7B681B680122134000D1A0E07B68C7
:102760005B68002B12D07B685A6880235B029A4218
:102770000CD07B685A68A023DB029A4206D0AB23B8
:102780005A009E4B1100180007F086FF9C4BDB6837
:102790000C221340082B0ED0994BDB680C221340FF
:1027A0000C2B16D1964BDA6880235B021A408023EB
:1027B0005B029A420DD1924B1A6880239B02134010
:1027C00000D16CE07B685B68002B68D1012300F0CE
:1027D00072FC7B685A6880235B029A4207D1884B5F
:1027E000874A1268802149020A431A6027E07B6801
:1027F0005A68A023DB029A420ED1814B804A1268AC
:102800008021C9020A431A607D4B7D4A12688021EB
:1028100049020A431A6012E0794B794A12687949F1
:102820000A401A60764B1A6880235B021340FB60F3
:10283000FB68734B724A126873490A401A607B68DE
:102840005B68002B15D0FEF7CBFE03003B6109E06F
:10285000FEF7C6FE02003B69D31A642B02D903239C
:1028600000F029FC664B1A6880239B021340EFD0CE
:1028700016E0FEF7B5FE03003B6109E0FEF7B0FE8F
:1028800002003B69D31A642B02D9032300F013FC26
:102890005B4B1A6880239B021340EFD100E0C046D7
:1028A0007B681B680222134000D18EE07B68DB68E6
:1028B000002B0ED07B68DB68012B0AD07B68DB68BD
:1028C000092B06D0C5235A004C4B1100180007F005
:1028D000E3FE7B681B691F2B07D98C23FF331A008B
:1028E000464B1100180007F0D7FE454BDB680C2261
:1028F0001340042B0BD0424BDB680C2213400C2BF3
:102900001CD13F4BDA6880235B02134016D13C4B4D
:102910001B680422134006D07B68DB68012B02D0C1
:10292000012300F0C8FB364A354B5B683749194034
:102930007B681B691B020B43536046E07B68DB68C6
:10294000002B28D02E4A2E4B1B6809218B431900DF
:102950007B68DB680B431360FEF742FE03003B61BC
:1029600009E0FEF73DFE02003B69D31A022B02D9B3
:10297000032300F0A0FB224B1B6804221340F0D07D
:102980001F4A1F4B5B68214919407B681B691B026A
:102990000B43536019E01A4B194A126801218A430C
:1029A0001A60FEF71DFE03003B6109E0FEF718FE0A
:1029B00002003B69D31A022B02D9032300F07BFBF0
:1029C0000F4B1B6804221340F0D17B681B68102258
:1029D000134000D141E10A4BDB680C22134000D0C8
:1029E000A8E0074B1A6880239B00134010D07B6837
:1029F0009B69002B0CD1012300F05DFB08C100088E
:102A000000100240FFFFFEFFFFFFFBFFFFE0FFFFA4
:102A10007B68DB69FF2B07D9D623FF331A00B14B44
:102A20001100180007F038FE7B681B6A002B2AD0C3
:102A30007B681A6A80239B019A4224D07B681A6AB9
:102A40008023DB019A421ED07B681A6AC023DB0117
:102A50009A4218D07B681A6A80231B029A4212D0CD
:102A60007B681A6AA0231B029A420CD07B681A6A00
:102A7000C0231B029A4206D0EB235A00994B110047
:102A8000180007F009FE7B681A6A974B5968E02323
:102A90001B020B409A421CD97B681B6A180000F08D
:102AA000A5FD031E01D0012305E38F4A8E4B5B6811
:102AB0008E4919407B681B6A0B4353608A4A8A4BD4
:102AC0005B681B02190A7B68DB691B060B435360BA
:102AD0001BE0854A844B5B68844919407B681B6A0C
:102AE0000B435360804A804B5B681B02190A7B686A
:102AF000DB691B060B4353607B681B6A180000F000
:102B000075FD031E01D00123D5E27B681B6A5B0BB8
:102B10000133802212029A40734BDB681B090F219C
:102B20000B407349CB5CDA40724B1A600020FEF711
:102B30002DFD92E07B689B69002B09D07B689B6927
:102B4000012B05D06C4A674B1100180007F0A4FD5B
:102B50007B689B69002B66D0634B634A12688021B7
:102B600049000A431A60FEF73BFD03003B6108E0A1
:102B7000FEF736FD02003B69D31A022B01D903236D
:102B800099E2594B1A6880239B001340F0D07B6870
:102B9000DB69FF2B05D9594A524B1100180007F089
:102BA0007BFD7B681B6A002B29D07B681A6A802317
:102BB0009B019A4223D07B681A6A8023DB019A42E8
:102BC0001DD07B681A6AC023DB019A4217D07B684C
:102BD0001A6A80231B029A4211D07B681A6AA023CA
:102BE0001B029A420BD07B681A6AC0231B029A42CE
:102BF00005D0434A3B4B1100180007F04DFD3A4AFF
:102C0000394B5B68394919407B681B6A0B43536039
:102C1000354A354B5B681B02190A7B68DB691B066A
:102C20000B43536019E0304B2F4A126835490A4074
:102C30001A60FEF7D5FC03003B6108E0FEF7D0FC0C
:102C400002003B69D31A022B01D9032333E2264B3E
:102C50001A6880239B001340F0D17B681B68082210
:102C6000134058D07B685B69002B09D07B685B6997
:102C7000012B05D0244A1B4B1100180007F00CFD56
:102C80007B685B69002B19D0174B174A126D012125
:102C90000A431A65FEF7A4FC03003B6108E0FEF757
:102CA0009FFC02003B69D31A022B01D9032302E2E5
:102CB0000D4B1B6D02221340F1D02CE00A4B0A4A47
:102CC000126D01218A431A65FEF78AFC03003B61FD
:102CD0001CE0FEF785FC02003B69D31A022B15D9D4
:102CE0000323E8E108C1000800100240FF1FFFFFB6
:102CF0005CC500080000002002020000160200006F
:102D000017020000FFFEFFFF36020000CA4B1B6DDA
:102D100002221340DDD17B681B680422134000D1DE
:102D2000C5E01723FB1800221A707B689B68002BF4
:102D300011D07B689A6880235B009A420BD07B6835
:102D40009A68A023DB009A4205D0BC4ABC4B110014
:102D5000180007F0A1FCB84B9A6B80235B05134069
:102D60000AD1B54BB44A926B802149050A439A6354
:102D70001723FB1801221A70B24B1A6880235B00DC
:102D800013401AD1AF4BAF4A1268802149000A4361
:102D90001A60FEF725FC03003B6108E0FEF720FC0B
:102DA00002003B69D31A642B01D9032383E1A54BAD
:102DB0001A6880235B001340F0D07B689A688023F8
:102DC0005B009A4207D19C4B9B4A126D80214900BF
:102DD0000A431A6531E07B689B68002B0CD1964B47
:102DE000954A126D98490A401A65934B924A126DA2
:102DF00096490A401A6520E07B689A68A023DB00A8
:102E00009A420ED18C4B8C4A126D8021C9000A4324
:102E10001A65894B884A126D802149000A431A6558
:102E20000BE0854B844A126D87490A401A65824B34
:102E3000814A126D85490A401A657B689B68002BA0
:102E400015D0FEF7CDFB03003B6109E0FEF7C8FBA0
:102E500002003B69D31A7E4A934201D903232AE137
:102E6000754B1A6D80239B001340EFD014E0FEF7E2
:102E7000B7FB03003B6109E0FEF7B2FB02003B69D0
:102E8000D31A734A934201D9032314E16A4B1A6D92
:102E900080239B001340EFD11723FB181B78012BD5
:102EA00005D1654B644A926B6A490A409A637B6814
:102EB0005B6A002B0DD07B685B6A012B09D07B68B5
:102EC0005B6A022B05D0644A5D4B1100180007F0C5
:102ED000E3FB7B685B6A002B00D1EBE0564BDB68C1
:102EE0000C2213400C2B00D1E2E07B685B6A022BC2
:102EF00000D0C2E07B689B6A002B0CD07B689A6A8A
:102F000080235B029A4206D0B7239A004C4B1100F3
:102F1000180007F0C1FB7B68DB6A002B35D07B68AB
:102F2000DA6A8023DB029A422FD07B68DA6A802338
:102F30001B039A4229D07B68DA6AC0231B039A429A
:102F400023D07B68DA6A80235B039A421DD07B68BA
:102F5000DA6AA0235B039A4217D07B68DA6AC0233F
:102F60005B039A4211D07B68DA6AE0235B039A42E2
:102F70000BD07B68DA6A80239B039A4205D0374ADC
:102F80002F4B1100180007F087FB7B681A6B80231A
:102F9000DB039A4211D07B681A6B80231B049A4290
:102FA0000BD07B681A6BC0231B049A4205D02C4AB5
:102FB000234B1100180007F06FFB1F4B1E4A1268CD
:102FC00028490A401A60FEF70BFB03003B6108E04A
:102FD000FEF706FB02003B69D31A022B01D903233B
:102FE00069E0154B1A6880239B041340F0D1124A04
:102FF000114BDB681C4919407B68986A7B68DB6A67
:1030000018437B681B6B03430B43D3600A4B0A4A8C
:103010001268802149040A431A60FEF7E1FA0300AE
:103020003B6123E0FEF7DCFA02003B69D31A022B76
:103030001CD903233FE0C04600100240620200009A
:1030400008C1000800700040FFFEFFFFFFFBFFFF0C
:1030500088130000FFFFFFEFD3020000DD02000035
:10306000DE020000FFFFFFFEFFFF02FF144B1A68A5
:1030700080239B041340D5D01CE0114B104A1268EA
:1030800010490A401A60FEF7ABFA03003B6108E002
:10309000FEF7A6FA02003B69D31A022B01D90323DB
:1030A00009E0074B1A6880239B041340F0D101E02C
:1030B000012300E000231800BD4606B080BDC046D5
:1030C00000100240FFFFFFFE80B584B000AF7860C3
:1030D00039600023FB607B68002B06D1CF239A0068
:1030E0009E4B1100180007F0D7FA7B681B6801227D
:1030F000134014D17B681B68022213400FD17B68F8
:103100001B68042213400AD17B681B680822134005
:1031100005D1934A914B1100180007F0BDFA3B68A6
:10312000002B08D03B68012B05D08E4A8B4B110039
:10313000180007F0B1FA8C4B1B6801221A403B685B
:103140009A4211D2884B884A126801218A431100A1
:103150003A680A431A60844B1B6801221A403B6894
:103160009A4201D001237BE17B681B680222134055
:1031700033D07B689B68002B25D07B689B68802BB5
:1031800021D07B689B68902B1DD07B689B68A02B0F
:1031900019D07B689B68B02B15D07B689B68C02BCF
:1031A00011D07B689B68D02B0DD07B689B68E02B8F
:1031B00009D07B689B68F02B05D06C4A674B1100E7
:1031C000180007F069FA6A4A694BDB68F0218B4303
:1031D00019007B689B680B43D3607B681B680122E6
:1031E000134000D1A0E07B685B68002B12D07B68A5
:1031F0005B68012B0ED07B685B68022B0AD07B6872
:103200005B68032B06D0D7239A00544B110018009B
:1032100007F042FA7B685B68022B07D1544B1A68AF
:1032200080239B02134020D1012319E17B685B6856
:10323000032B07D14E4B1A6880239B04134014D1F3
:1032400001230DE17B685B68012B06D1484B1B68AD
:103250000422134009D1012302E1454B1A6880235F
:103260009B00134001D10123FAE0414A404BDB6847
:1032700003218B4319007B685B680B43D360FEF727
:10328000AFF90300FB607B685B68022B11D109E09A
:10329000FEF7A6F90200FB68D31A364A934201D919
:1032A0000323DDE0324BDB680C221340082BEFD107
:1032B0003AE07B685B68032B11D109E0FEF790F9D7
:1032C0000200FB68D31A2B4A934201D90323C7E0BB
:1032D000274BDB680C2213400C2BEFD124E07B68DA
:1032E0005B68012B1BD109E0FEF77AF90200FB684D
:1032F000D31A204A934201D90323B1E01C4BDB6867
:103300000C221340042BEFD10EE0FEF769F9020006
:10331000FB68D31A174A934201D90323A0E0144B48
:10332000DB680C221340F0D10F4B1B6801221A40BE
:103330003B689A4220D90C4B0B4A126801218A4300
:1033400011003A680A431A60074B1B6801221A40B1
:103350003B689A4210D0012382E0C04608C10008B1
:103360003D0300003E030000002002405503000022
:1033700000100240881300007B681B680422134081
:103380002AD07B68DB68002B1DD07B68DA6880233D
:10339000DB009A4217D07B68DA68A023DB009A42F0
:1033A00011D07B68DA68C023DB009A420BD07B68BF
:1033B000DA68E023DB009A4205D02B4A2B4B110040
:1033C000180007F069F92A4A294BDB682949194096
:1033D0007B68DB680B43D3607B681B680822134063
:1033E0002CD07B681B69002B1ED07B681A69802358
:1033F000DB009A4218D07B681A69A023DB009A424E
:1034000012D07B681A69C023DB009A420CD07B681B
:103410001A69E023DB009A4206D0F2239A00134B8C
:103420001100180007F038F9114A114BDB681249F6
:1034300019407B681B69DB000B43D36000F022F866
:1034400001000B4BDB681B090F2213400B4AD35CB6
:103450000A00DA400A4B1A600020FEF797F80023B2
:103460001800BD4604B080BDC103000008C10008BB
:1034700000100240FFF8FFFFFFC7FFFF5CC5000818
:103480000000002080B586B000AF0023FB60002361
:10349000BB6000237B6000237B6100233B60002333
:1034A0003B61324BDB68FB60FB680C221340082B4E
:1034B0000ED00C2B0FD0042B45D12C4B1B681022A7
:1034C000134002D02A4B3B614BE02A4B3B6148E062
:1034D000294B3B6145E0FB689B0C0F221340274AB8
:1034E000D35CBB60FB689B0D0322134001337B6000
:1034F0001E4BDA6880235B02134009D0BB681E4A6A
:10350000534379681800FCF7FFFD03007B6117E067
:10351000164B1B681022134009D0BB68144A534352
:1035200079681800FCF7F0FD03007B6108E0BB68D8
:10353000104A534379681800FCF7E6FD03007B61ED
:103540007B693B610DE0094B5B685B0B0722134015
:103550003B603B680133802212029A4013003B61BA
:10356000C0463B691800BD4606B080BD0010024051
:1035700000093D000024F40000127A0074C5000820
:1035800080B500AF024B1B681800BD4680BDC04629
:103590000000002080B500AFFFF7F2FF0100064BEE
:1035A000DB681B0A07221340044AD35CD9400B0096
:1035B0001800BD4680BDC046001002406CC5000822
:1035C00080B500AFFFF7DCFF0100064BDB68DB0ACC
:1035D00007221340044AD35CD9400B001800BD46B3
:1035E00080BDC046001002406CC5000880B584B0A4
:1035F00000AF78600023FB600023BB60234BDB68D7
:10360000F02213402BD1214B9A6B80235B05134092
:1036100006D01F4B1A68C0235B011340FB6012E009
:103620001A4B1A4A926B802149050A439A63184B38
:103630001A68C0235B011340FB60144B134A926B62
:1036400014490A409A63FA68C0235B019A4206D182
:103650007A68C0231B029A4201D10123BB600E4B42
:103660000D4A126801218A431100BA680A431A60A0
:10367000094B1B6801221A40BB689A4201D0012302
:1036800000E000231800BD4604B080BD00100240D9
:1036900000700040FFFFFFEF0020024080B586B0C1
:1036A00000AF786000233B610023FB607B681B68F0
:1036B000BF2B04D9684B7E21180006F0EDFF7B6814
:1036C0001B682022134000D102E17B681B68202286
:1036D00013402CD07B685B68002B28D07B685A682D
:1036E00080235B029A4222D07B685A6880239B0227
:1036F0009A421CD07B685A68C0239B029A4216D01B
:103700007B685A6898235B039A4210D07B685A689A
:103710008C239B039A420AD07B685A68CC239B0374
:103720009A4204D04C4B8A21180006F0B5FF1723AB
:10373000FB1800221A70494B9A6B80235B051340DB
:103740000AD1464B454A926B802149050A439A6348
:103750001723FB1801221A70414B1A6880235B0063
:1037600013401AD13E4B3E4A1268802149000A4359
:103770001A60FDF735FF03003B6108E0FDF730FFFD
:1037800002003B69D31A642B01D9032367E1344B50
:103790001A6880235B001340F0D0304B1A68C023B6
:1037A0009B031340FB607B685A68C0239B031A404D
:1037B000FB689A4210D07B685A68C0239B021A406B
:1037C000C0239B029A4207D1244B1A6880239B0294
:1037D000134001D0012342E1204B1A6DC0239B020C
:1037E0001340FB60FB68002B48D07B685A68C023FD
:1037F0009B021A40FB689A4240D07B681B682022DB
:1038000013403BD0154B1B6D164A1340FB60134B06
:10381000124A126D802109030A431A650F4B0F4AA1
:10382000126D11490A401A650C4BFA681A65FA685C
:1038300080235B00134021D0FDF7D2FE03003B61E3
:1038400016E0FDF7CDFE02003B69D31A074A93420A
:103850000ED9032303E1C04640C100080010024016
:1038600000700040FFFFFCFFFFFFF7FF8813000020
:103870007D4B1A6D80239B001340E2D07B685A6811
:10388000C0239B021A40C0239B029A420BD1764A66
:10389000754B1B68754919407B685868C0239B03AA
:1038A00003400B431360704A6F4B196D7B68586877
:1038B000C0239B0203400B4313651723FB181B789F
:1038C000012B05D1684B684A926B69490A409A639B
:1038D0007B681B68012213401ED07B689B68002B0D
:1038E00010D07B689B68012B0CD07B689B68032BF6
:1038F00008D07B689B68022B04D05E4BF221180035
:1039000006F0CAFE584A584BDB6C03218B43190062
:103910007B689B680B43D3647B681B68022213405F
:103920001ED07B68DB68002B10D07B68DB68042B23
:103930000CD07B68DB680C2B08D07B68DB68082B1D
:1039400004D04C4BFD21180006F0A6FE464A464B1B
:10395000DB6C0C218B4319007B68DB680B43D36461
:103960007B681B680422134026D07B681B69002BF0
:1039700019D07B681A698023DB009A4213D07B68D8
:103980001A69C0231B019A420DD07B681A698023F3
:103990001B019A4207D00823FF331A00354B110050
:1039A000180006F079FE304A2F4BDB6C3249194083
:1039B0007B681B690B43D3647B681B680822134038
:1039C00020D07B685B69002B13D07B685A69802309
:1039D0005B019A420DD07B685A6980239B019A4211
:1039E00007D01223FF331A00224B1100180006F0F3
:1039F00053FE1D4A1C4BDB6C204919407B685B69F8
:103A00000B43D3647B681B688022134026D07B68FD
:103A10009B69002B19D07B689A698023DB029A424C
:103A200013D07B689A6980231B039A420DD07B6870
:103A30009A69C0231B039A4207D03023FF331A0030
:103A40000C4B1100180006F027FE074A064BDB6CF2
:103A50000B4919407B689B690B43D3640023180012
:103A6000BD4606B080BDC04600100240FFFFCFFF3C
:103A7000FFFFFFEF40C10008FFF3FFFFFFCFFFFF95
:103A8000FFFFF3FF80B586B000AF786000233B6195
:103A90000023FB6000237B610023BB607B68BF2B9E
:103AA00006D9CA235A009D4B1100180006F0F4FDF8
:103AB0007B68202B00D92BE17B689A00984BD318A8
:103AC0001B689F46974B1B6D3B61964B1A6DC0233D
:103AD0009B021340BB60BA6880235B029A4208D104
:103AE0003A6980239B00134003D080231B027B6133
:103AF0003AE0BA6880239B029A4206D13B690222CF
:103B0000134002D0884B7B612EE0BA68C0239B0231
:103B10009A4226D1834B1A6880239B02134020D0FF
:103B2000804B1A68C0239B031340FB60FB68802214
:103B3000920393420BD0C0229203934204D080227E
:103B40005203934206D008E0784B7B6108E0784B43
:103B50007B6105E0774B7B6102E0774B7B61C04680
:103B600002E000237B61D4E0D3E06E4BDB6C0322E8
:103B70001340BB60BB68002B04D1FFF721FD03009D
:103B80007B61C6E0BB68022B07D1664B1B68042231
:103B9000134002D0694B7B6117E0BB68012B04D155
:103BA000FFF770FC03007B61B3E0BB68032B09D116
:103BB0005C4B1A6D80239B00134003D080231B02B3
:103BC0007B6102E000237B61A3E0A2E0554BDB6C4C
:103BD0000C221340BB60BB68002B04D1FFF7DAFC5A
:103BE00003007B6195E0BB68082B07D14D4B1B6838
:103BF0000422134002D0514B7B6117E0BB68042BB9
:103C000004D1FFF73FFC03007B6182E0BB680C2B13
:103C100009D1444B1A6D80239B00134003D08023AD
:103C20001B027B6102E000237B6172E071E03D4B8F
:103C3000DA6CC0231B011340BB60BB68002B04D1AE
:103C4000FFF7A8FC03007B6163E0BA6880231B01D7
:103C50009A4207D1334B1B680422134002D0374BE2
:103C60007B611BE0BA688023DB009A4204D1FFF736
:103C700009FC03007B614CE0BA68C0231B019A4237
:103C800009D1284B1A6D80239B00134003D0802359
:103C90001B027B6102E000237B613AE039E0214BAB
:103CA000DA6CC0239B011340BB60BB68002B04D1BE
:103CB000FFF770FC03007B612BE0BA6880239B0157
:103CC0009A4207D1174B1B680422134002D01B4BAA
:103CD0007B611EE0BA6880235B019A4204D1FFF742
:103CE000D1FB03007B6114E000237B6111E00D4BED
:103CF0009A6B8023DB031A408023DB039A4204D1B2
:103D0000FFF748FC03007B6103E000237B6100E0D8
:103D1000C0467B691800BD4606B080BD40C10008A2
:103D2000A0C30008001002408890000020A10700F6
:103D300040420F0080841E0000093D000024F40072
:103D400080B582B000AF78607B68002B01D1012381
:103D5000E2E07B681B68724A934204D0714BB92140
:103D6000180006F099FC7B685B68402B08D07B68E4
:103D70005B68002B04D06B4BBA21180006F08CFC5A
:103D80007B689B687F2B04D9664BBB21180006F02B
:103D900083FC7B68DB68644A934204D9614BBC2195
:103DA000180006F079FC7B681B69002B16D07B6835
:103DB0001A6980239B039A4210D07B681A6980237A
:103DC000DB039A420AD07B681A69C023DB039A425C
:103DD00004D0544BBD21180006F05EFC7B685B6983
:103DE000002B08D07B685B69022B04D04D4BBE21B1
:103DF000180006F051FC7B689B69002B0AD07B6899
:103E00009A6980235B039A4204D0464BBF21180075
:103E100006F042FC7B68DB69002B08D07B68DB691D
:103E2000012B04D03F4BC021180006F035FC7B6805
:103E300021229B5CDBB2002B07D17B682022002172
:103E400099547B68180006F035FF7B682122022117
:103E500099547B681B68CA225A627B681B6853228C
:103E60005A627B68180000F034FC031E09D07B689E
:103E70001B68FF225A627B68212204219954012386
:103E80004AE07B681B687A681268926827490A4092
:103E90009A607B681B687A68126891687A685068D3
:103EA0007A68126910437A68926902430A439A60F9
:103EB0007B681B687A68D2681A617B681B687A68BD
:103EC000126811697A68926812040A431A617B6861
:103ED0001B687A681268D26880218A43DA607B683E
:103EE0001B687A681268D26C03218A43DA647B68A3
:103EF0001B687A681268D16C7A68D0697A685269EE
:103F000002430A43DA647B681B68FF225A627B68BB
:103F100021220121995400231800BD4602B080BD22
:103F2000002800407CC10008FF7F0000BFFF8FFF1A
:103F300090B587B000AFF860B9607A6000237B610C
:103F40007B68002B09D07B68012B06D0CF235A0059
:103F5000BE4B1100180006F09FFBBB68DA68802397
:103F60009B029A4211D0BB68DA6880235B029A42B6
:103F70000BD0BB68DB68002B07D0A023FF331A00EF
:103F8000B24B1100180006F087FBBB681B69002BC1
:103F90000CD0BB681A698023DB029A4206D0D0237A
:103FA0005A00AA4B1100180006F076FBFB6820228D
:103FB0009B5C012B01D1022343E1FB6820220121FC
:103FC0009954FB682122022199547B68002B68D107
:103FD000FB681B689B68402213401FD0BB681B789E
:103FE000002B03D0BB681B780C2B07D9AC23FF3305
:103FF0001A00964B1100180006F04EFBBB68DB78E8
:10400000002B1AD0BB68DB78402B16D0D6235A0081
:104010008E4B1100180006F03FFB0EE0BB6800223B
:10402000DA70BB681B78172B07D9B223FF331A004D
:10403000864B1100180006F02FFBBB685B783B2B0A
:1040400007D9B423FF331A00804B1100180006F083
:1040500023FBBB689B783B2B06D9DA235A007B4BAA
:104060001100180006F018FBBB681B78180000F060
:104070005CFB03001C04BB685B78180000F055FB78
:1040800003001B021C43BB689B78180000F04DFB2B
:10409000030022001A43BB68DB781B0413437B61D7
:1040A0006AE0FB681B689B684022134024D0BB6811
:1040B0001B78180000F05AFB03007B617B69002B22
:1040C00002D07B690C2B06D9E0235A005F4B11000C
:1040D000180006F0E1FABB68DB78002B1ED0BB6845
:1040E000DB78402B1AD0C223FF331A00574B110044
:1040F000180006F0D1FA11E0BB680022DA70BB6844
:104100001B78180000F032FB0300172B06D9E323BD
:104110005A004E4B1100180006F0BEFABB685B78DF
:10412000180000F023FB03003B2B06D9E4235A00C0
:10413000464B1100180006F0AFFABB689B781800D8
:1041400000F014FB03003B2B07D9CA23FF331A00EE
:104150003E4B1100180006F09FFABB681B781A044A
:10416000BB685B781B021343BA6892781A43BB683A
:10417000DB781B0413437B61FB681B68CA225A620D
:10418000FB681B6853225A62FB68180000F0A1FA12
:10419000031E0DD0FB681B68FF225A62FB682122B8
:1041A00004219954FB68202200219954012348E0FE
:1041B000FB681B687A6926490A401A60FB681B681D
:1041C000FA681268926823490A409A60FB681B6883
:1041D000FA6812689168BA68D068BA6812690243CE
:1041E0000A439A60FB681B68FA681268D2688021EB
:1041F0008A43DA60FB681B689B682022134013D156
:10420000FB68180000F03CFA031E0DD0FB681B6829
:10421000FF225A62FB68212204219954FB68202264
:104220000021995401230CE0FB681B68FF225A62AD
:10423000FB68212201219954FB6820220021995416
:1042400000231800BD4607B090BDC0467CC10008E1
:104250007F7F7F00FFFFFBFF80B586B000AFF86077
:10426000B9607A6000237B617B68002B08D07B6893
:10427000012B05D02C4A2D4B1100180006F00CFA2A
:10428000FB681B689A6ABB685A60FB681B681B69FD
:104290005B045A0CBB689A60FB681B681B68244A65
:1042A00013407B617B691B0CDBB23F221340DAB207
:1042B000BB681A707B691B0ADBB27F221340DAB23B
:1042C000BB685A707B69DBB27F221340DAB2BB68ED
:1042D0009A707B691B0CDBB240221340DAB2BB68D8
:1042E000DA707B68002B1AD1BB681B78180000F0CD
:1042F0003DFA03001A00BB681A70BB685B781800AF
:1043000000F034FA03001A00BB685A70BB689B784F
:10431000180000F02BFA03001A00BB689A70002303
:104320001800BD4606B080BD250200007CC1000813
:104330007F7F7F0090B587B000AFF860B9607A608A
:1043400000237B617B68002B08D07B68012B05D0A4
:10435000944A954B1100180006F09EF9FB68202244
:104360009B5C012B01D1022317E1FB682022012174
:104370009954FB682122022199547B68002B0ED1AD
:10438000BB685B781A001023134008D0BB685B78C9
:1043900010229343DBB20A33DAB2BB685A70BB68AF
:1043A0001B78012B1DD0BB681B78022B19D0BB6872
:1043B0001B78032B15D0BB681B78042B11D0BB686E
:1043C0001B78052B0DD0BB681B78062B09D0BB686A
:1043D0001B78072B05D0754A734B1100180006F0A7
:1043E0005BF97B68002B42D1BB68DB78632B05D976
:1043F0006F4A6D4B1100180006F04EF9BB685B78F0
:10440000002B03D0BB685B780C2B05D9694A664B3F
:104410001100180006F040F9BB689B78002B03D010
:10442000BB689B781F2B05D9634A5F4B11001800AE
:1044300006F032F9BB68DB78180000F076F903006B
:104440001C04BB685B78180000F06FF903001B02C6
:104450001C43BB689B78180000F067F9030022003A
:104460001A43BB681B785B0313437B6144E0BB6862
:10447000DB78180000F07AF90300632B06D99B2340
:104480009A00494B1100180006F006F9BB685B78EA
:10449000180000F06BF903007B617B69002B02D0F0
:1044A0007B690C2B05D9454A3F4B1100180006F0DB
:1044B000F3F8BB689B78180000F058F903007B61A3
:1044C0007B69002B02D07B691F2B06D99C239A00A5
:1044D000354B1100180006F0DFF8BB68DB781A04D2
:1044E000BB685B781B021343BA6892781A43BB68B7
:1044F0001B785B0313437B61FB681B68CA225A620B
:10450000FB681B6853225A62FB68180000F0E1F850
:10451000031E0DD0FB681B68FF225A62FB68212234
:1045200004219954FB68202200219954012334E08E
:10453000FB681B687A6922490A405A60FB681B685D
:10454000FA681268D26880218A43DA60FB681B68C7
:104550009B682022134013D1FB68180000F090F8EC
:10456000031E0DD0FB681B68FF225A62FB682122E4
:1045700004219954FB6820220021995401230CE066
:10458000FB681B68FF225A62FB68212201219954B3
:10459000FB6820220021995400231800BD4607B073
:1045A00090BDC046510200007CC100085D020000C1
:1045B0006102000062020000630200006E0200005F
:1045C0003FFFFF0080B586B000AFF860B9607A6049
:1045D00000237B617B68002B09D07B68012B06D010
:1045E000B0239A00244B1100180006F055F8FB6820
:1045F0001B685B68214A13407B617B691B0CDAB244
:10460000BB68DA707B691B0ADBB21F221340DAB287
:10461000BB685A707B69DBB23F221340DAB2BB68D9
:104620009A707B695B0BDBB207221340DAB2BB687E
:104630001A707B68002B1AD1BB68DB78180000F079
:1046400095F803001A00BB68DA70BB685B78180045
:1046500000F08CF803001A00BB685A70BB689B78A6
:10466000180000F083F803001A00BB689A7000235A
:104670001800BD4606B080BD7CC100083FFFFF00AA
:1046800080B584B000AF78600023FB607B681B6856
:104690007A681268D268A0218A43DA60FCF7A0FF2A
:1046A0000300FB600AE0FCF79BFF0200FB68D21AE4
:1046B000FA239B009A4201D9032306E07B681B681A
:1046C000DB6820221340EED000231800BD4604B062
:1046D00080BD80B584B000AF78600023FB607B684C
:1046E0001B68DB68402213401AD17B681B680122DB
:1046F0005242DA60FCF774FF0300FB600AE0FCF74B
:104700006FFF0200FB68D21AFA239B009A4201D97C
:10471000032306E07B681B68DB6840221340EED071
:1047200000231800BD4604B080BD80B584B000AF42
:104730000200FB1D1A700023FB6007E0FB680133D9
:10474000FB60FB1DFA1D12780A3A1A70FB1D1B78DC
:10475000092BF3D8FB68DBB21B01DAB2FB1D1B7817
:104760001343DBB21800BD4604B080BD80B584B0F1
:1047700000AF0200FB1D1A700023FB60FB1D1B78BD
:104780001B09DBB21A0013009B009B185B00FB6047
:10479000FB1D1B780F221340DAB2FB68DBB2D31883
:1047A000DBB21800BD4604B080BD000080B582B009
:1047B00000AF78607B68002B01D101232DE17B687D
:1047C0001B68984A934209D07B681B68964A9342BB
:1047D00004D0964BF721180005F05EFF7B685B68FC
:1047E000002B0AD07B685A6882235B009A4204D06F
:1047F0008E4BF821180005F04FFF7B689B68002B5B
:1048000010D07B689A688023DB009A420AD07B68CC
:104810009A6880231B029A4204D0844BF921180025
:1048200005F03AFF7B68DA6880231B019A4208D0C2
:104830007B68DB68002B04D07C4BFA21180005F064
:104840002BFF7B681B69002B08D07B681B69022B40
:1048500004D0764BFB21180005F01EFF7B685B69D6
:10486000002B08D07B685B69012B04D06F4BFC21C7
:10487000180005F011FF7B689A6980239B009A421B
:104880000ED07B689B69002B0AD07B689A698023D5
:10489000DB029A4204D0654BFD21180005F0FCFEB6
:1048A0007B68DB69002B20D07B68DB69082B1CD080
:1048B0007B68DB69102B18D07B68DB69182B14D060
:1048C0007B68DB69202B10D07B68DB69282B0CD040
:1048D0007B68DB69302B08D07B68DB69382B04D020
:1048E000524BFE21180005F0D7FE7B681B6A002B97
:1048F00008D07B681B6A802B04D04C4BFF2118002A
:1049000005F0CAFE7B685B6A002B0AD07B685B6A95
:10491000102B06D080235A00444B1100180005F0DC
:10492000BBFE7B689B6A002B0DD07B689A6A802354
:104930009B019A4207D00223FF331A003B4B110020
:10494000180005F0A9FE7B68DB6A002B04D07B68A9
:10495000DB6A374A934206D981235A00334B110050
:10496000180005F099FE7B6851229B5CDBB2002B9E
:1049700007D17B685022002199547B68180006F00B
:10498000B1F97B685122022199547B681B687A68CF
:104990001268126840218A431A607B681B687A6833
:1049A00051687A68926811437A68D26811437A68CC
:1049B000126911437A68526911437A6890698022BA
:1049C0009200024011437A68D26911437A68126AF0
:1049D00011437A68926A0A431A607B681B687A6896
:1049E0009269120C042111407A68526A0A435A6093
:1049F0007B681B687A68D26A1A617B681B687A6870
:104A00001268D2690B490A40DA617B6800225A6554
:104A10007B6851220121995400231800BD4602B041
:104A200080BDC0460030014000380040B4C10008DD
:104A3000FFFF0000FFF7FFFF80B586B000AFF86012
:104A4000B9607A601A00BB1C1A801623FB1800227A
:104A50001A80FB6851229B5CDBB2012B06D0FB68FD
:104A600051229B5CDBB2222B00D064E2BB68002B9E
:104A700006D07B68002B03D0BB1C1B88002B01D108
:104A8000012359E2FB689B68002B05D0C34AC44B45
:104A90001100180005F000FEFB6850229B5C012B02
:104AA00001D1022348E2FB68502201219954FB689E
:104AB00051229B5CDBB2012B03D1FB6851223221D6
:104AC0009954FB6800225A65FB687A689A63FB6810
:104AD000BA1C12889A87FB68BA1C1288DA87FB68AE
:104AE000BA681A63FB68BA1C12889A86FB68BA1CFB
:104AF0001288DA86FB6800229A64FB680022DA6476
:104B0000FB689A6A80239B019A4210D1FB681B685C
:104B1000FA6812681268A3490A401A60FB681B68A9
:104B2000FA6812681268802189010A431A60FB68DA
:104B30001B681B6840221340402B07D0FB681B6892
:104B4000FA681268126840210A431A60FB68DA6842
:104B500080231B019A4200D0C8E0FB685B68002BF1
:104B60000AD0FB685A6882235B009A4216D1FB6820
:104B7000DB8E9BB2012B11D1FB681B68FA68126BAC
:104B80001288DA60FB681B6B9A1CFB681A63FB686F
:104B9000DB8E9BB2013B9AB2FB68DA86FB68DB8E48
:104BA0009BB2002B00D079E0FB689A6A80239B01BE
:104BB0009A4208D1FB681B68FA6812681268802163
:104BC00049010A431A603B6AF8680022012100F09B
:104BD0006FFA031E01D00323AEE1FB689A6BFB68FA
:104BE0001B68DB689BB21380FB689B6B9A1CFB689D
:104BF0009A63FB68DB8F9BB2013B9AB2FB68DA8752
:104C000035E13B6AF8680022022100F051FA031EE8
:104C100001D0032390E1FB681B68FA68126B1288CD
:104C2000DA60FB681B6B9A1CFB681A63FB68DB8EFF
:104C30009BB2013B9AB2FB68DA86FB68DB8E9BB2C3
:104C4000002B0ED1FB689A6A80239B019A4208D1FF
:104C5000FB681B68FA6812681268802149010A43E0
:104C60001A603B6AF8680022012100F021FA031E55
:104C700001D0032360E1FB689A6BFB681B68DB686B
:104C80009BB21380FB689B6B9A1CFB689A63FB6862
:104C9000DB8F9BB2013B9AB2FB68DA87FB68DB8E45
:104CA0009BB2002BADD1FB685B68002B00D0DEE02F
:104CB0003B6AF8680022012100F0FAF9031E01D0D6
:104CC000032339E1FB689A6BFB681B68DB689BB2C6
:104CD0001380FB689B6B9A1CFB689A63FB68DB8FF5
:104CE0009BB2013B9AB2FB68DA87C0E0FB685B6865
:104CF000002B0AD0FB685A6882235B009A4214D1C9
:104D0000FB68DB8E9BB2012B0FD1FB681B68FA6836
:104D1000126B501CF96808631278DA60FB68DB8E4E
:104D20009BB2013B9AB2FB68DA86FB68DB8E9BB2D2
:104D3000002B00D077E0FB689A6A80239B019A429F
:104D400008D1FB681B68FA68126812688021490163
:104D50000A431A603B6AF8680022012100F0A8F9B2
:104D6000031E01D00323E7E0FB689A6BFB681B6816
:104D7000DB68DBB21370FB68DB8F9BB2013B9AB23E
:104D8000FB68DA8773E03B6AF8680022022100F0D2
:104D90008FF9031E08D00323CEE0C046FA020000BC
:104DA000B4C10008FFDFFFFFFB681B68FA68126BE5
:104DB000501CF96808631278DA60FB68DB8E9BB2DE
:104DC000013B9AB2FB68DA86FB68DB8E9BB2002B54
:104DD0000ED1FB689A6A80239B019A4208D1FB6836
:104DE0001B68FA6812681268802149010A431A6038
:104DF0003B6AF8680022012100F05AF9031E01D035
:104E0000032399E0FB689B6B591CFA689163FA686D
:104E10001268D268D2B21A70FB68DB8F9BB2013B7A
:104E20009AB2FB68DA87FB68DB8E9BB2002BAAD1B3
:104E3000FB685B68002B1AD13B6AF86800220121ED
:104E400000F036F9031E01D0032375E0FB689B6B6D
:104E5000591CFA689163FA681268D268D2B21A7063
:104E6000FB68DB8F9BB2013B9AB2FB68DA87FB6879
:104E70009A6A80239B019A4219D13B6AF868002202
:104E8000012100F015F9031E07D0FB685B6D0222BB
:104E90001A43FB685A6503234EE0FB681B68DB6816
:104EA0009AB21623FB181A801623FB181B883B6A3C
:104EB000F8680122802100F0FBF8031E07D0FB6890
:104EC0005B6D20221A43FB685A65032334E0FB68BC
:104ED000512201219954FB689A6A80239B019A42CE
:104EE00023D1FB681B689B6810221340102B1CD138
:104EF000FB685B6D02221A43FB685A65FB681B68FE
:104F0000FA68126812680E490A401A60FB681B684A
:104F1000FA6812681268802189010A431A60FB68E6
:104F2000502200219954012306E0FB685022002101
:104F30009954002300E002231800BD4606B080BD4E
:104F4000FFDFFFFF80B586B000AF78607B681B682D
:104F50005B6840221340402B13D17B681B689B6821
:104F600001221340012B0CD17B681B689B684022F7
:104F70001340402B05D07B689B6C7A6810009847E3
:104F80008BE07B681B685B6880221340802B0CD110
:104F90007B681B689B6802221340022B05D17B684B
:104FA000DB6C7A681000984777E07B681B685B6869
:104FB00020221340202B70D17B681B689B68102235
:104FC0001340102B0AD17B685B6D02221A437B6869
:104FD0005A657B681B68112252429A607B681B6885
:104FE0009B6820221340202B12D17B685B6D01222D
:104FF0001A437B685A657B681B689B687B617B688A
:105000001B687A681268126840218A431A607B69BB
:105010007B681B689B6840221340402B14D17B683F
:1050200051229B5CDBB2122B0ED07B685B6D04229D
:105030001A437B685A657B681B68DB683B617B6849
:105040001B689B683B613B697B681B689A6880238F
:105050005B001A4080235B009A420AD17B685B6D3B
:1050600008221A437B685A657B681B689B68FB6053
:10507000FB687B685B6D002B0FD07B681B687A68D0
:1050800012685268E0218A435A607B6851220121EC
:1050900099547B68180000F003F8BD4606B080BD47
:1050A00080B582B000AF7860C046BD4602B080BD1A
:1050B00080B586B000AFF860B9603B60FB1D1A7028
:1050C00000237B61FCF78CFA03007B61FB1D1B78DE
:1050D000002B00D087E03EE03B6801333BD03B68CB
:1050E000002B07D0FCF77CFA02007B69D21A3B68E0
:1050F0009A4230D9FB681B68FA6812685268E0214E
:105100008A435A60FB681B68FA681268126840217B
:105110008A431A60FB689A6A80239B019A4210D1E5
:10512000FB681B68FA681268126835490A401A6001
:10513000FB681B68FA6812681268802189010A43BB
:105140001A60FB68512201219954FB68502200210A
:105150009954032350E0FB681B689B68BA681A40A7
:10516000BB689A42B8D146E03B6801333BD03B680C
:10517000002B07D0FCF734FA02007B69D21A3B6897
:105180009A4230D9FB681B68FA6812685268E021BD
:105190008A435A60FB681B68FA68126812684021EB
:1051A0008A431A60FB689A6A80239B019A4210D155
:1051B000FB681B68FA681268126811490A401A6095
:1051C000FB681B68FA6812681268802189010A432B
:1051D0001A60FB68512201219954FB68502200217A
:1051E0009954032308E0FB681B689B68BA681A405F
:1051F000BB689A42B8D000231800BD4606B080BDF7
:10520000FFDFFFFF80B582B000AF78607B68002BC6
:1052100001D1012374E07B689B69002B14D07B686B
:105220001B68394A934223D07B681B68374A9342F4
:105230001ED07B681B68364A934219D0354BEC214F
:10524000180005F029FA13E07B681B682E4A934288
:105250000ED07B681B682D4A934209D07B681B687F
:105260002B4A934204D02B4BF121180005F014FA7D
:105270007B6869229B5CDBB2002B07D17B686822CC
:10528000002199547B68180005F0F4FB7B686922C3
:10529000242199547B681B687A681268126801217E
:1052A0008A431A607B685B6A002B03D07B68180016
:1052B00000F0BEFC7B68180000F0C8F80300012B6A
:1052C00001D101231CE07B681B687A681268526870
:1052D00011490A405A607B681B687A6812689268B4
:1052E0002A218A439A607B681B687A681268126870
:1052F00001210A431A607B68180000F015FE0300C4
:105300001800BD4602B080BD003801400044004096
:1053100000480040ECC10008FFB7FFFF80B584B033
:1053200000AFF860B960BB1D1A80FB686A229B5C05
:10533000DBB2202B00D06EE0BB68002B03D0BB1D7E
:105340001B88002B01D1012366E0FB689A6880234B
:105350005B019A4209D1FB681B69002B05D1BB6830
:105360000122134001D0012356E0FB6868229B5CB8
:10537000012B01D102234FE0FB68682201219954DF
:10538000FB68BA685A65FB68BA1D582112885A52E0
:10539000FB680022DA66FB686A2222219954FB68C6
:1053A0005B6E1F4ADA62FB685B6E1E4A1A63FB681B
:1053B0005B6E1D4A5A63FB685B6E00229A63FB6852
:1053C000586EFB681B6824331900FB685B6D1A007C
:1053D000BB1D1B88FCF700FCFB6868220021995468
:1053E000FB681B68FA6812681268802149000A434A
:1053F0001A60FB681B68FA681268926801210A4308
:105400009A60FB681B68FA681268926840210A4338
:105410009A60002300E002231800BD4604B080BD5E
:10542000B9600008296100084761000880B582B0B2
:1054300000AF7860C046BD4602B080BD80B582B086
:1054400000AF7860C046BD4602B080BDB0B58CB03C
:1054500000AFF8610023FB62132318229446BC447A
:10546000634410221A700C2318229446BC446344EF
:1054700000221A80102318229446BC446344002260
:105480001A800F2318229446BC44634400221A70E9
:10549000FB695B68C84A934205D9C84AC84B1100EA
:1054A000180005F0F9F8FB699A6880235B059A42B9
:1054B0000FD0FB699B68002B0BD0FB699A68802397
:1054C0005B019A4205D0BF4ABD4B1100180005F0A0
:1054D000E3F8FB691B68BC4A934210D1FB69DB68A7
:1054E000002B32D0FB69DA6880239B019A422CD0D2
:1054F000B64AB34B1100180005F0CEF825E0FB6961
:10550000DB68002B11D0FB69DA68C0239B019A424B
:105510000BD0FB69DA6880239B019A4205D0AC4A24
:10552000A74B1100180005F0B7F8FB691B6A002BA8
:105530000BD0FB691A6A80231B019A4205D0A54A49
:105540009F4B1100180005F0A7F8FB691B69002BA1
:1055500012D0FB691A698023DB009A420CD0FB69E8
:105560001A69C023DB009A4206D085231A01944BA6
:105570001100180005F090F8FB695B690C22934359
:1055800003D1FB695B69002B05D1934A8C4B110059
:10559000180005F081F8FB699B69002B17D0FB69A7
:1055A0009A6980235B009A4211D0FB699A69802333
:1055B0009B009A420BD0FB699A69C0239B009A42D8
:1055C00005D0864A7E4B1100180005F065F8FB698E
:1055D000DB69002B0BD0FB69DA6980231B029A423E
:1055E00005D07F4A764B1100180005F055F8FB698D
:1055F0009A68FB691B691A43FB695B691A43FB697B
:10560000DB691343FB62FB691B68FA691268126865
:1056100074491140FA6A0A431A60FB691B68FA6907
:105620001268526870491140FA69D2680A435A6098
:10563000FB699B69FB62FB691B68634A934204D068
:10564000FB691B6AFA6A1343FB62FB691B68FA6910
:105650001268926865491140FA6A0A439A60FB69C8
:105660001B68634A934234D1624BDB6C03221340C4
:10567000012B15D004D3022B0AD0032B18D01FE026
:10568000132318229446BC44634401221A70C4E0D8
:10569000132318229446BC44634402221A70BCE0CF
:1056A000132318229446BC44634404221A70B4E0C5
:1056B000132318229446BC44634408221A70ACE0B9
:1056C000132318229446BC44634410221A70C04627
:1056D000A3E0FB691B68484A934237D1454BDB6C1A
:1056E0000C221340042B18D002D8002B05D024E044
:1056F000082B0AD00C2B18D01FE013231822944635
:10570000BC44634400221A7087E013231822944695
:10571000BC44634402221A707FE01323182294468B
:10572000BC44634404221A7077E013231822944681
:10573000BC44634408221A706FE013231822944675
:10574000BC44634410221A70C04666E0FB691B68C3
:105750001D4A934262D1274BDA6CC0231B011340D0
:105760008022D20093421FD08022D200934202D8DE
:10577000002B09D04AE08022120193420CD0C022B3
:10578000120193423AD041E0132318229446BC44BC
:10579000634400221A7040E0132318229446BC444C
:1057A000634402221A7038E0132318229446BC4442
:1057B000634404221A7030E000093D0044080000F0
:1057C000ECC10008450800000048004048080000FF
:1057D0004C0800004D08000051080000520800006D
:1057E00053080000F369FFEFFFCFFFFFFFF4FFFF57
:1057F00000380140001002400044004013231822EA
:105800009446BC44634408221A7006E0132318220D
:105810009446BC44634410221A70C0460220FEF72E
:1058200031F903003B62FB691B68DB4A934200D0FD
:1058300085E00023FB62132318229446BC44634492
:105840001B78022B0DD002DC002B05D01DE0042BB1
:1058500012D0082B15D018E0FDF79CFE0300FB6268
:105860001BE0CE4B1B681022134002D0CC4BFB62D6
:1058700013E0CC4BFB6210E0FDF704FE0300FB627B
:105880000BE080231B02FB6207E00F2318229446E3
:10589000BC44634401221A70C046FB6A002B00D14D
:1058A000BBE1FB695A6813005B009A18FB6A9A42D5
:1058B00005D8FB695B681A03FB6A9A4207D20F237B
:1058C00018229446BC44634401221A70A5E1FB6A85
:1058D0003B6100237B6139697A690B001B0E100064
:1058E00005021D430B001C02FB695B685B08BB6083
:1058F0000023FB60B868F96800196941FB695B68BF
:105900003B6000237B603A687B68FAF789FC030000
:105910000C00FB62FB6AA44A934208D9FB6AA34AC3
:10592000934204D8FB691B68FA6ADA6075E10F23B9
:1059300018229446BC44634401221A706DE1FB694D
:10594000DA6980231B029A4200D0CAE0132318228E
:105950009446BC4463441B78082B00D989E09A0024
:10596000934BD3181B689F463B6A5A00FB695B68E0
:105970005B08D218FB695B6819001000FAF7C4FBDA
:1059800003001A00102318218C46BC4463441A807B
:1059900077E0FDF715FE03005A00FB695B685B08C2
:1059A000D218FB695B6819001000FAF7ADFB030021
:1059B0001A00102318218C46BC4463441A8060E00E
:1059C000764B1B681022134013D0FB695B685B08A1
:1059D000784A9A18FB695B6819001000FAF794FB83
:1059E00003001A00102318218C46BC4463441A801B
:1059F00047E0FB695B685B086F4A9A18FB695B6864
:105A000019001000FAF780FB03001A001023182178
:105A10008C46BC4463441A8033E0FDF733FD030039
:105A20005A00FB695B685B08D218FB695B68190068
:105A30001000FAF769FB03001A00102318218C46A6
:105A4000BC4463441A801CE0FB695B685B088022ED
:105A500052029A18FB695B6819001000FAF754FBB0
:105A600003001A00102318218C46BC4463441A809A
:105A700007E00F2318229446BC44634401221A70A5
:105A8000C0460C2318229446BC44634410221821BB
:105A90008C46BC44624412880F218A431A8010232A
:105AA00018229446BC4463441B885B109BB20722B7
:105AB000134099B20C2318229446BC4463440C2230
:105AC00018208446BC44624412880A431A80FB6949
:105AD0001B680C2218218C46BC4462441288DA6090
